{
  "_format": "hh-sol-artifact-1",
  "contractName": "Voting",
  "sourceName": "contracts/Voting.sol",
  "abi": [
    {
      "inputs": [
        {
          "internalType": "string[]",
          "name": "_candidateNames",
          "type": "string[]"
        },
        {
          "internalType": "uint256",
          "name": "_durationInMinutes",
          "type": "uint256"
        }
      ],
      "stateMutability": "nonpayable",
      "type": "constructor"
    },
    {
      "inputs": [],
      "name": "AccessControlBadConfirmation",
      "type": "error"
    },
    {
      "inputs": [
        {
          "internalType": "address",
          "name": "account",
          "type": "address"
        },
        {
          "internalType": "bytes32",
          "name": "neededRole",
          "type": "bytes32"
        }
      ],
      "name": "AccessControlUnauthorizedAccount",
      "type": "error"
    },
    {
      "inputs": [],
      "name": "EnforcedPause",
      "type": "error"
    },
    {
      "inputs": [],
      "name": "ExpectedPause",
      "type": "error"
    },
    {
      "inputs": [],
      "name": "ReentrancyGuardReentrantCall",
      "type": "error"
    },
    {
      "anonymous": false,
      "inputs": [
        {
          "indexed": false,
          "internalType": "string",
          "name": "name",
          "type": "string"
        },
        {
          "indexed": false,
          "internalType": "uint256",
          "name": "candidateIndex",
          "type": "uint256"
        },
        {
          "indexed": false,
          "internalType": "uint256",
          "name": "timestamp",
          "type": "uint256"
        }
      ],
      "name": "CandidateAdded",
      "type": "event"
    },
    {
      "anonymous": false,
      "inputs": [
        {
          "indexed": false,
          "internalType": "address",
          "name": "account",
          "type": "address"
        }
      ],
      "name": "Paused",
      "type": "event"
    },
    {
      "anonymous": false,
      "inputs": [
        {
          "indexed": true,
          "internalType": "bytes32",
          "name": "role",
          "type": "bytes32"
        },
        {
          "indexed": true,
          "internalType": "bytes32",
          "name": "previousAdminRole",
          "type": "bytes32"
        },
        {
          "indexed": true,
          "internalType": "bytes32",
          "name": "newAdminRole",
          "type": "bytes32"
        }
      ],
      "name": "RoleAdminChanged",
      "type": "event"
    },
    {
      "anonymous": false,
      "inputs": [
        {
          "indexed": true,
          "internalType": "bytes32",
          "name": "role",
          "type": "bytes32"
        },
        {
          "indexed": true,
          "internalType": "address",
          "name": "account",
          "type": "address"
        },
        {
          "indexed": true,
          "internalType": "address",
          "name": "sender",
          "type": "address"
        }
      ],
      "name": "RoleGranted",
      "type": "event"
    },
    {
      "anonymous": false,
      "inputs": [
        {
          "indexed": true,
          "internalType": "bytes32",
          "name": "role",
          "type": "bytes32"
        },
        {
          "indexed": true,
          "internalType": "address",
          "name": "account",
          "type": "address"
        },
        {
          "indexed": true,
          "internalType": "address",
          "name": "sender",
          "type": "address"
        }
      ],
      "name": "RoleRevoked",
      "type": "event"
    },
    {
      "anonymous": false,
      "inputs": [
        {
          "indexed": false,
          "internalType": "address",
          "name": "account",
          "type": "address"
        }
      ],
      "name": "Unpaused",
      "type": "event"
    },
    {
      "anonymous": false,
      "inputs": [
        {
          "indexed": true,
          "internalType": "address",
          "name": "voter",
          "type": "address"
        },
        {
          "indexed": true,
          "internalType": "uint256",
          "name": "candidateIndex",
          "type": "uint256"
        },
        {
          "indexed": false,
          "internalType": "uint256",
          "name": "timestamp",
          "type": "uint256"
        }
      ],
      "name": "VoteCast",
      "type": "event"
    },
    {
      "anonymous": false,
      "inputs": [
        {
          "indexed": true,
          "internalType": "address",
          "name": "voter",
          "type": "address"
        },
        {
          "indexed": false,
          "internalType": "uint256",
          "name": "timestamp",
          "type": "uint256"
        }
      ],
      "name": "VoterRegistered",
      "type": "event"
    },
    {
      "anonymous": false,
      "inputs": [
        {
          "indexed": true,
          "internalType": "address",
          "name": "voter",
          "type": "address"
        },
        {
          "indexed": false,
          "internalType": "uint256",
          "name": "timestamp",
          "type": "uint256"
        }
      ],
      "name": "VoterUnregistered",
      "type": "event"
    },
    {
      "anonymous": false,
      "inputs": [
        {
          "indexed": true,
          "internalType": "address",
          "name": "admin",
          "type": "address"
        },
        {
          "indexed": false,
          "internalType": "uint256",
          "name": "timestamp",
          "type": "uint256"
        }
      ],
      "name": "VotingPaused",
      "type": "event"
    },
    {
      "anonymous": false,
      "inputs": [
        {
          "indexed": false,
          "internalType": "uint256",
          "name": "newStart",
          "type": "uint256"
        },
        {
          "indexed": false,
          "internalType": "uint256",
          "name": "newEnd",
          "type": "uint256"
        },
        {
          "indexed": false,
          "internalType": "uint256",
          "name": "timestamp",
          "type": "uint256"
        }
      ],
      "name": "VotingTimesUpdated",
      "type": "event"
    },
    {
      "anonymous": false,
      "inputs": [
        {
          "indexed": true,
          "internalType": "address",
          "name": "admin",
          "type": "address"
        },
        {
          "indexed": false,
          "internalType": "uint256",
          "name": "timestamp",
          "type": "uint256"
        }
      ],
      "name": "VotingUnpaused",
      "type": "event"
    },
    {
      "inputs": [],
      "name": "ADMIN_ROLE",
      "outputs": [
        {
          "internalType": "bytes32",
          "name": "",
          "type": "bytes32"
        }
      ],
      "stateMutability": "view",
      "type": "function"
    },
    {
      "inputs": [],
      "name": "DEFAULT_ADMIN_ROLE",
      "outputs": [
        {
          "internalType": "bytes32",
          "name": "",
          "type": "bytes32"
        }
      ],
      "stateMutability": "view",
      "type": "function"
    },
    {
      "inputs": [],
      "name": "ELECTION_MANAGER_ROLE",
      "outputs": [
        {
          "internalType": "bytes32",
          "name": "",
          "type": "bytes32"
        }
      ],
      "stateMutability": "view",
      "type": "function"
    },
    {
      "inputs": [
        {
          "internalType": "string",
          "name": "_name",
          "type": "string"
        }
      ],
      "name": "addCandidate",
      "outputs": [],
      "stateMutability": "nonpayable",
      "type": "function"
    },
    {
      "inputs": [
        {
          "internalType": "uint256",
          "name": "",
          "type": "uint256"
        }
      ],
      "name": "candidates",
      "outputs": [
        {
          "internalType": "string",
          "name": "name",
          "type": "string"
        },
        {
          "internalType": "uint256",
          "name": "voteCount",
          "type": "uint256"
        }
      ],
      "stateMutability": "view",
      "type": "function"
    },
    {
      "inputs": [
        {
          "internalType": "bool",
          "name": "_required",
          "type": "bool"
        }
      ],
      "name": "enableVoterRegistration",
      "outputs": [],
      "stateMutability": "nonpayable",
      "type": "function"
    },
    {
      "inputs": [
        {
          "internalType": "uint256",
          "name": "_additionalMinutes",
          "type": "uint256"
        }
      ],
      "name": "extendVoting",
      "outputs": [],
      "stateMutability": "nonpayable",
      "type": "function"
    },
    {
      "inputs": [],
      "name": "getAllVotesOfCandidates",
      "outputs": [
        {
          "components": [
            {
              "internalType": "string",
              "name": "name",
              "type": "string"
            },
            {
              "internalType": "uint256",
              "name": "voteCount",
              "type": "uint256"
            }
          ],
          "internalType": "struct Voting.Candidate[]",
          "name": "",
          "type": "tuple[]"
        }
      ],
      "stateMutability": "view",
      "type": "function"
    },
    {
      "inputs": [],
      "name": "getCandidateCount",
      "outputs": [
        {
          "internalType": "uint256",
          "name": "",
          "type": "uint256"
        }
      ],
      "stateMutability": "view",
      "type": "function"
    },
    {
      "inputs": [],
      "name": "getRemainingTime",
      "outputs": [
        {
          "internalType": "uint256",
          "name": "",
          "type": "uint256"
        }
      ],
      "stateMutability": "view",
      "type": "function"
    },
    {
      "inputs": [
        {
          "internalType": "bytes32",
          "name": "role",
          "type": "bytes32"
        }
      ],
      "name": "getRoleAdmin",
      "outputs": [
        {
          "internalType": "bytes32",
          "name": "",
          "type": "bytes32"
        }
      ],
      "stateMutability": "view",
      "type": "function"
    },
    {
      "inputs": [],
      "name": "getTotalVotes",
      "outputs": [
        {
          "internalType": "uint256",
          "name": "",
          "type": "uint256"
        }
      ],
      "stateMutability": "view",
      "type": "function"
    },
    {
      "inputs": [
        {
          "internalType": "address",
          "name": "_voter",
          "type": "address"
        }
      ],
      "name": "getVoterRegistrationStatus",
      "outputs": [
        {
          "internalType": "bool",
          "name": "",
          "type": "bool"
        }
      ],
      "stateMutability": "view",
      "type": "function"
    },
    {
      "inputs": [],
      "name": "getVotingStatus",
      "outputs": [
        {
          "internalType": "bool",
          "name": "",
          "type": "bool"
        }
      ],
      "stateMutability": "view",
      "type": "function"
    },
    {
      "inputs": [],
      "name": "getWinningCandidate",
      "outputs": [
        {
          "internalType": "string",
          "name": "winnerName",
          "type": "string"
        },
        {
          "internalType": "uint256",
          "name": "winnerVoteCount",
          "type": "uint256"
        }
      ],
      "stateMutability": "view",
      "type": "function"
    },
    {
      "inputs": [
        {
          "internalType": "bytes32",
          "name": "role",
          "type": "bytes32"
        },
        {
          "internalType": "address",
          "name": "account",
          "type": "address"
        }
      ],
      "name": "grantRole",
      "outputs": [],
      "stateMutability": "nonpayable",
      "type": "function"
    },
    {
      "inputs": [
        {
          "internalType": "bytes32",
          "name": "role",
          "type": "bytes32"
        },
        {
          "internalType": "address",
          "name": "account",
          "type": "address"
        }
      ],
      "name": "hasRole",
      "outputs": [
        {
          "internalType": "bool",
          "name": "",
          "type": "bool"
        }
      ],
      "stateMutability": "view",
      "type": "function"
    },
    {
      "inputs": [
        {
          "internalType": "address",
          "name": "_voter",
          "type": "address"
        }
      ],
      "name": "hasVoted",
      "outputs": [
        {
          "internalType": "bool",
          "name": "",
          "type": "bool"
        }
      ],
      "stateMutability": "view",
      "type": "function"
    },
    {
      "inputs": [],
      "name": "pauseVoting",
      "outputs": [],
      "stateMutability": "nonpayable",
      "type": "function"
    },
    {
      "inputs": [],
      "name": "paused",
      "outputs": [
        {
          "internalType": "bool",
          "name": "",
          "type": "bool"
        }
      ],
      "stateMutability": "view",
      "type": "function"
    },
    {
      "inputs": [
        {
          "internalType": "address",
          "name": "_voter",
          "type": "address"
        }
      ],
      "name": "registerVoter",
      "outputs": [],
      "stateMutability": "nonpayable",
      "type": "function"
    },
    {
      "inputs": [
        {
          "internalType": "address[]",
          "name": "_voters",
          "type": "address[]"
        }
      ],
      "name": "registerVotersBatch",
      "outputs": [],
      "stateMutability": "nonpayable",
      "type": "function"
    },
    {
      "inputs": [
        {
          "internalType": "address",
          "name": "",
          "type": "address"
        }
      ],
      "name": "registeredVoters",
      "outputs": [
        {
          "internalType": "bool",
          "name": "",
          "type": "bool"
        }
      ],
      "stateMutability": "view",
      "type": "function"
    },
    {
      "inputs": [
        {
          "internalType": "bytes32",
          "name": "role",
          "type": "bytes32"
        },
        {
          "internalType": "address",
          "name": "callerConfirmation",
          "type": "address"
        }
      ],
      "name": "renounceRole",
      "outputs": [],
      "stateMutability": "nonpayable",
      "type": "function"
    },
    {
      "inputs": [
        {
          "internalType": "bytes32",
          "name": "role",
          "type": "bytes32"
        },
        {
          "internalType": "address",
          "name": "account",
          "type": "address"
        }
      ],
      "name": "revokeRole",
      "outputs": [],
      "stateMutability": "nonpayable",
      "type": "function"
    },
    {
      "inputs": [
        {
          "internalType": "bytes4",
          "name": "interfaceId",
          "type": "bytes4"
        }
      ],
      "name": "supportsInterface",
      "outputs": [
        {
          "internalType": "bool",
          "name": "",
          "type": "bool"
        }
      ],
      "stateMutability": "view",
      "type": "function"
    },
    {
      "inputs": [],
      "name": "totalVotes",
      "outputs": [
        {
          "internalType": "uint256",
          "name": "",
          "type": "uint256"
        }
      ],
      "stateMutability": "view",
      "type": "function"
    },
    {
      "inputs": [],
      "name": "unpauseVoting",
      "outputs": [],
      "stateMutability": "nonpayable",
      "type": "function"
    },
    {
      "inputs": [
        {
          "internalType": "address",
          "name": "_voter",
          "type": "address"
        }
      ],
      "name": "unregisterVoter",
      "outputs": [],
      "stateMutability": "nonpayable",
      "type": "function"
    },
    {
      "inputs": [
        {
          "internalType": "uint256",
          "name": "_newStart",
          "type": "uint256"
        },
        {
          "internalType": "uint256",
          "name": "_newEnd",
          "type": "uint256"
        }
      ],
      "name": "updateVotingPeriod",
      "outputs": [],
      "stateMutability": "nonpayable",
      "type": "function"
    },
    {
      "inputs": [
        {
          "internalType": "uint256",
          "name": "_candidateIndex",
          "type": "uint256"
        }
      ],
      "name": "vote",
      "outputs": [],
      "stateMutability": "nonpayable",
      "type": "function"
    },
    {
      "inputs": [],
      "name": "voterRegistrationRequired",
      "outputs": [
        {
          "internalType": "bool",
          "name": "",
          "type": "bool"
        }
      ],
      "stateMutability": "view",
      "type": "function"
    },
    {
      "inputs": [
        {
          "internalType": "address",
          "name": "",
          "type": "address"
        }
      ],
      "name": "voters",
      "outputs": [
        {
          "internalType": "bool",
          "name": "",
          "type": "bool"
        }
      ],
      "stateMutability": "view",
      "type": "function"
    },
    {
      "inputs": [],
      "name": "votingEnd",
      "outputs": [
        {
          "internalType": "uint256",
          "name": "",
          "type": "uint256"
        }
      ],
      "stateMutability": "view",
      "type": "function"
    },
    {
      "inputs": [],
      "name": "votingStart",
      "outputs": [
        {
          "internalType": "uint256",
          "name": "",
          "type": "uint256"
        }
      ],
      "stateMutability": "view",
      "type": "function"
    }
  ],
  "bytecode": "0x60806040523480156200001157600080fd5b5060405162003fec38038062003fec833981810160405281019062000037919062000646565b600160028190555060005b82518110156200013e57600360405180604001604052808584815181106200006f576200006e620006ac565b5b60200260200101518152602001600081525090806001815401808255809150506001900390600052602060002090600202016000909190919091506000820151816000019081620000c191906200091c565b506020820151816001015550507f3afe6ad627492103504cd95049ed4c003eb858931291151e9e72e7aba869ecc0838281518110620001055762000104620006ac565b5b60200260200101518242604051620001209392919062000a66565b60405180910390a18080620001359062000ad9565b91505062000042565b50620001546000801b336200020760201b60201c565b50620001877fa49807205ce4d355092ef5a8a18f56e8913cf4a201fbe287825b095693c21775336200020760201b60201c565b50620001ba7f7378a0511133229f838d56e2f9c6feccdff7b4cf063897a326e203a88bfc5cb9336200020760201b60201c565b5042600681905550603c81620001d1919062000b26565b42620001de919062000b71565b6007819055506000600960006101000a81548160ff021916908315150217905550505062000bac565b60006200021b83836200030a60201b60201c565b620002ff57600160008085815260200190815260200160002060000160008473ffffffffffffffffffffffffffffffffffffffff1673ffffffffffffffffffffffffffffffffffffffff16815260200190815260200160002060006101000a81548160ff0219169083151502179055506200029b6200037460201b60201c565b73ffffffffffffffffffffffffffffffffffffffff168273ffffffffffffffffffffffffffffffffffffffff16847f2f8788117e7eff1d82e926ec794901d17c78024a50270940304540a733656f0d60405160405180910390a46001905062000304565b600090505b92915050565b600080600084815260200190815260200160002060000160008373ffffffffffffffffffffffffffffffffffffffff1673ffffffffffffffffffffffffffffffffffffffff16815260200190815260200160002060009054906101000a900460ff16905092915050565b600033905090565b6000604051905090565b600080fd5b600080fd5b600080fd5b6000601f19601f8301169050919050565b7f4e487b7100000000000000000000000000000000000000000000000000000000600052604160045260246000fd5b620003e08262000395565b810181811067ffffffffffffffff82111715620004025762000401620003a6565b5b80604052505050565b6000620004176200037c565b9050620004258282620003d5565b919050565b600067ffffffffffffffff821115620004485762000447620003a6565b5b602082029050602081019050919050565b600080fd5b600080fd5b600067ffffffffffffffff821115620004815762000480620003a6565b5b6200048c8262000395565b9050602081019050919050565b60005b83811015620004b95780820151818401526020810190506200049c565b60008484015250505050565b6000620004dc620004d68462000463565b6200040b565b905082815260208101848484011115620004fb57620004fa6200045e565b5b6200050884828562000499565b509392505050565b600082601f83011262000528576200052762000390565b5b81516200053a848260208601620004c5565b91505092915050565b60006200055a62000554846200042a565b6200040b565b9050808382526020820190506020840283018581111562000580576200057f62000459565b5b835b81811015620005ce57805167ffffffffffffffff811115620005a957620005a862000390565b5b808601620005b8898262000510565b8552602085019450505060208101905062000582565b5050509392505050565b600082601f830112620005f057620005ef62000390565b5b81516200060284826020860162000543565b91505092915050565b6000819050919050565b62000620816200060b565b81146200062c57600080fd5b50565b600081519050620006408162000615565b92915050565b6000806040838503121562000660576200065f62000386565b5b600083015167ffffffffffffffff8111156200068157620006806200038b565b5b6200068f85828601620005d8565b9250506020620006a2858286016200062f565b9150509250929050565b7f4e487b7100000000000000000000000000000000000000000000000000000000600052603260045260246000fd5b600081519050919050565b7f4e487b7100000000000000000000000000000000000000000000000000000000600052602260045260246000fd5b600060028204905060018216806200072e57607f821691505b602082108103620007445762000743620006e6565b5b50919050565b60008190508160005260206000209050919050565b60006020601f8301049050919050565b600082821b905092915050565b600060088302620007ae7fffffffffffffffffffffffffffffffffffffffffffffffffffffffffffffffff826200076f565b620007ba86836200076f565b95508019841693508086168417925050509392505050565b6000819050919050565b6000620007fd620007f7620007f1846200060b565b620007d2565b6200060b565b9050919050565b6000819050919050565b6200081983620007dc565b62000831620008288262000804565b8484546200077c565b825550505050565b600090565b6200084862000839565b620008558184846200080e565b505050565b5b818110156200087d57620008716000826200083e565b6001810190506200085b565b5050565b601f821115620008cc5762000896816200074a565b620008a1846200075f565b81016020851015620008b1578190505b620008c9620008c0856200075f565b8301826200085a565b50505b505050565b600082821c905092915050565b6000620008f160001984600802620008d1565b1980831691505092915050565b60006200090c8383620008de565b9150826002028217905092915050565b6200092782620006db565b67ffffffffffffffff811115620009435762000942620003a6565b5b6200094f825462000715565b6200095c82828562000881565b600060209050601f8311600181146200099457600084156200097f578287015190505b6200098b8582620008fe565b865550620009fb565b601f198416620009a4866200074a565b60005b82811015620009ce57848901518255600182019150602085019450602081019050620009a7565b86831015620009ee5784890151620009ea601f891682620008de565b8355505b6001600288020188555050505b505050505050565b600082825260208201905092915050565b600062000a2182620006db565b62000a2d818562000a03565b935062000a3f81856020860162000499565b62000a4a8162000395565b840191505092915050565b62000a60816200060b565b82525050565b6000606082019050818103600083015262000a82818662000a14565b905062000a93602083018562000a55565b62000aa2604083018462000a55565b949350505050565b7f4e487b7100000000000000000000000000000000000000000000000000000000600052601160045260246000fd5b600062000ae6826200060b565b91507fffffffffffffffffffffffffffffffffffffffffffffffffffffffffffffffff820362000b1b5762000b1a62000aaa565b5b600182019050919050565b600062000b33826200060b565b915062000b40836200060b565b925082820262000b50816200060b565b9150828204841483151762000b6a5762000b6962000aaa565b5b5092915050565b600062000b7e826200060b565b915062000b8b836200060b565b925082820190508082111562000ba65762000ba562000aaa565b5b92915050565b6134308062000bbc6000396000f3fe608060405234801561001057600080fd5b50600436106102115760003560e01c80637ed1775111610125578063b6f0b632116100ad578063eb47681c1161007c578063eb47681c14610605578063efb98bcf14610621578063f3cdcd1e1461063f578063f3e02cf714610649578063f927cc291461066557610211565b8063b6f0b6321461057f578063c42d6241146105af578063cd080a67146105cb578063d547741f146105e957610211565b806391d14854116100f457806391d14854146104b35780639a0e7d66146104e3578063a217fddf14610501578063a3ec138d1461051f578063a9ff6df11461054f57610211565b80637ed1775114610451578063816855401461046d57806385a386351461047757806390a9ab901461049557610211565b806330a56347116101a85780634607bca3116101775780634607bca3146103bd578063462e91ec146103db578063581c281c146103f75780635c975abb1461041557806375b238fc1461043357610211565b806330a56347146103365780633477ee2e1461035457806336568abe1461038557806338db6dd3146103a157610211565b80630d15fd77116101e45780630d15fd77146102ae578063101158af146102cc578063248a9ca3146102ea5780632f2ff15d1461031a57610211565b80630121b93f1461021657806301ffc9a71461023257806308356e001461026257806309eef43e1461027e575b600080fd5b610230600480360381019061022b9190612072565b610684565b005b61024c600480360381019061024791906120f7565b610961565b604051610259919061213f565b60405180910390f35b61027c60048036038101906102779190612311565b6109db565b005b6102986004803603810190610293919061235a565b610bad565b6040516102a5919061213f565b60405180910390f35b6102b6610c03565b6040516102c39190612396565b60405180910390f35b6102d4610c09565b6040516102e19190612396565b60405180910390f35b61030460048036038101906102ff91906123e7565b610c0f565b6040516103119190612423565b60405180910390f35b610334600480360381019061032f919061243e565b610c2e565b005b61033e610c50565b60405161034b9190612396565b60405180910390f35b61036e60048036038101906103699190612072565b610c5d565b60405161037c9291906124fd565b60405180910390f35b61039f600480360381019061039a919061243e565b610d19565b005b6103bb60048036038101906103b6919061235a565b610d94565b005b6103c5610f33565b6040516103d2919061213f565b60405180910390f35b6103f560048036038101906103f091906125e2565b610f46565b005b6103ff6110ba565b60405161040c919061213f565b60405180910390f35b61041d6110e5565b60405161042a919061213f565b60405180910390f35b61043b6110fc565b6040516104489190612423565b60405180910390f35b61046b6004803603810190610466919061235a565b611120565b005b6104756112be565b005b61047f61137f565b60405161048c9190612396565b60405180910390f35b61049d611385565b6040516104aa9190612783565b60405180910390f35b6104cd60048036038101906104c8919061243e565b611480565b6040516104da919061213f565b60405180910390f35b6104eb6114ea565b6040516104f89190612396565b60405180910390f35b6105096114f4565b6040516105169190612423565b60405180910390f35b6105396004803603810190610534919061235a565b6114fb565b604051610546919061213f565b60405180910390f35b6105696004803603810190610564919061235a565b61151b565b604051610576919061213f565b60405180910390f35b6105996004803603810190610594919061235a565b61153b565b6040516105a6919061213f565b60405180910390f35b6105c960048036038101906105c491906127d1565b611591565b005b6105d3611617565b6040516105e09190612423565b60405180910390f35b61060360048036038101906105fe919061243e565b61163b565b005b61061f600480360381019061061a91906127fe565b61165d565b005b6106296117a6565b6040516106369190612396565b60405180910390f35b610647611813565b005b610663600480360381019061065e9190612072565b6118d4565b005b61066d6119e8565b60405161067b9291906124fd565b60405180910390f35b61068c611bda565b610694611c1b565b600460003373ffffffffffffffffffffffffffffffffffffffff1673ffffffffffffffffffffffffffffffffffffffff16815260200190815260200160002060009054906101000a900460ff1615610721576040517f08c379a00000000000000000000000000000000000000000000000000000000081526004016107189061288a565b60405180910390fd5b6003805490508110610768576040517f08c379a000000000000000000000000000000000000000000000000000000000815260040161075f906128f6565b60405180910390fd5b600654421015801561077b575060075442105b6107ba576040517f08c379a00000000000000000000000000000000000000000000000000000000081526004016107b190612962565b60405180910390fd5b600960009054906101000a900460ff161561085c57600560003373ffffffffffffffffffffffffffffffffffffffff1673ffffffffffffffffffffffffffffffffffffffff16815260200190815260200160002060009054906101000a900460ff1661085b576040517f08c379a0000000000000000000000000000000000000000000000000000000008152600401610852906129ce565b60405180910390fd5b5b600381815481106108705761086f6129ee565b5b9060005260206000209060020201600101600081548092919061089290612a4c565b91905055506001600460003373ffffffffffffffffffffffffffffffffffffffff1673ffffffffffffffffffffffffffffffffffffffff16815260200190815260200160002060006101000a81548160ff0219169083151502179055506008600081548092919061090290612a4c565b9190505550803373ffffffffffffffffffffffffffffffffffffffff167fb4cfecf70861b7b150d8337780d34fb4cbc2114b5fb1fe51a5c5fca1849f72744260405161094e9190612396565b60405180910390a361095e611c5f565b50565b60007f7965db0b000000000000000000000000000000000000000000000000000000007bffffffffffffffffffffffffffffffffffffffffffffffffffffffff1916827bffffffffffffffffffffffffffffffffffffffffffffffffffffffff191614806109d457506109d382611c69565b5b9050919050565b610a057f7378a0511133229f838d56e2f9c6feccdff7b4cf063897a326e203a88bfc5cb933611480565b610a44576040517f08c379a0000000000000000000000000000000000000000000000000000000008152600401610a3b90612b06565b60405180910390fd5b60005b8151811015610ba95760056000838381518110610a6757610a666129ee565b5b602002602001015173ffffffffffffffffffffffffffffffffffffffff1673ffffffffffffffffffffffffffffffffffffffff16815260200190815260200160002060009054906101000a900460ff16610b9657600160056000848481518110610ad457610ad36129ee565b5b602002602001015173ffffffffffffffffffffffffffffffffffffffff1673ffffffffffffffffffffffffffffffffffffffff16815260200190815260200160002060006101000a81548160ff021916908315150217905550818181518110610b4057610b3f6129ee565b5b602002602001015173ffffffffffffffffffffffffffffffffffffffff167ff16ce2c2236e2c6e3df646f80d657bceef4cd7f3a240c47e82adfa17a5f4724142604051610b8d9190612396565b60405180910390a25b8080610ba190612a4c565b915050610a47565b5050565b6000600460008373ffffffffffffffffffffffffffffffffffffffff1673ffffffffffffffffffffffffffffffffffffffff16815260200190815260200160002060009054906101000a900460ff169050919050565b60085481565b60065481565b6000806000838152602001908152602001600020600101549050919050565b610c3782610c0f565b610c4081611cd3565b610c4a8383611ce7565b50505050565b6000600380549050905090565b60038181548110610c6d57600080fd5b9060005260206000209060020201600091509050806000018054610c9090612b55565b80601f0160208091040260200160405190810160405280929190818152602001828054610cbc90612b55565b8015610d095780601f10610cde57610100808354040283529160200191610d09565b820191906000526020600020905b815481529060010190602001808311610cec57829003601f168201915b5050505050908060010154905082565b610d21611dd8565b73ffffffffffffffffffffffffffffffffffffffff168173ffffffffffffffffffffffffffffffffffffffff1614610d85576040517f6697b23200000000000000000000000000000000000000000000000000000000815260040160405180910390fd5b610d8f8282611de0565b505050565b610dbe7f7378a0511133229f838d56e2f9c6feccdff7b4cf063897a326e203a88bfc5cb933611480565b610dfd576040517f08c379a0000000000000000000000000000000000000000000000000000000008152600401610df490612b06565b60405180910390fd5b600560008273ffffffffffffffffffffffffffffffffffffffff1673ffffffffffffffffffffffffffffffffffffffff16815260200190815260200160002060009054906101000a900460ff1615610e8a576040517f08c379a0000000000000000000000000000000000000000000000000000000008152600401610e8190612bd2565b60405180910390fd5b6001600560008373ffffffffffffffffffffffffffffffffffffffff1673ffffffffffffffffffffffffffffffffffffffff16815260200190815260200160002060006101000a81548160ff0219169083151502179055508073ffffffffffffffffffffffffffffffffffffffff167ff16ce2c2236e2c6e3df646f80d657bceef4cd7f3a240c47e82adfa17a5f4724142604051610f289190612396565b60405180910390a250565b600960009054906101000a900460ff1681565b610f707f7378a0511133229f838d56e2f9c6feccdff7b4cf063897a326e203a88bfc5cb933611480565b610faf576040517f08c379a0000000000000000000000000000000000000000000000000000000008152600401610fa690612b06565b60405180910390fd5b610fb7611bda565b600654421080610fc957506007544210155b611008576040517f08c379a0000000000000000000000000000000000000000000000000000000008152600401610fff90612c64565b60405180910390fd5b6003604051806040016040528083815260200160008152509080600181540180825580915050600190039060005260206000209060020201600090919091909150600082015181600001908161105e9190612e30565b506020820151816001015550507f3afe6ad627492103504cd95049ed4c003eb858931291151e9e72e7aba869ecc081600160038054905061109f9190612f02565b426040516110af93929190612f36565b60405180910390a150565b600060065442101580156110cf575060075442105b80156110e057506110de6110e5565b155b905090565b6000600160009054906101000a900460ff16905090565b7fa49807205ce4d355092ef5a8a18f56e8913cf4a201fbe287825b095693c2177581565b61114a7f7378a0511133229f838d56e2f9c6feccdff7b4cf063897a326e203a88bfc5cb933611480565b611189576040517f08c379a000000000000000000000000000000000000000000000000000000000815260040161118090612b06565b60405180910390fd5b600560008273ffffffffffffffffffffffffffffffffffffffff1673ffffffffffffffffffffffffffffffffffffffff16815260200190815260200160002060009054906101000a900460ff16611215576040517f08c379a000000000000000000000000000000000000000000000000000000000815260040161120c90612fc0565b60405180910390fd5b6000600560008373ffffffffffffffffffffffffffffffffffffffff1673ffffffffffffffffffffffffffffffffffffffff16815260200190815260200160002060006101000a81548160ff0219169083151502179055508073ffffffffffffffffffffffffffffffffffffffff167f78b411a8cf59f03839ed9a669c4c63f73ed091f1aed5762c8e3ff1eae39763a4426040516112b39190612396565b60405180910390a250565b6112e87fa49807205ce4d355092ef5a8a18f56e8913cf4a201fbe287825b095693c2177533611480565b611327576040517f08c379a000000000000000000000000000000000000000000000000000000000815260040161131e9061302c565b60405180910390fd5b61132f611ed2565b3373ffffffffffffffffffffffffffffffffffffffff167f5a33ea059d6b53f0e32c94979997d4311440a46bf8147245dc5ae5364a35f3a9426040516113759190612396565b60405180910390a2565b60075481565b60606003805480602002602001604051908101604052809291908181526020016000905b8282101561147757838290600052602060002090600202016040518060400160405290816000820180546113dc90612b55565b80601f016020809104026020016040519081016040528092919081815260200182805461140890612b55565b80156114555780601f1061142a57610100808354040283529160200191611455565b820191906000526020600020905b81548152906001019060200180831161143857829003601f168201915b50505050508152602001600182015481525050815260200190600101906113a9565b50505050905090565b600080600084815260200190815260200160002060000160008373ffffffffffffffffffffffffffffffffffffffff1673ffffffffffffffffffffffffffffffffffffffff16815260200190815260200160002060009054906101000a900460ff16905092915050565b6000600854905090565b6000801b81565b60046020528060005260406000206000915054906101000a900460ff1681565b60056020528060005260406000206000915054906101000a900460ff1681565b6000600560008373ffffffffffffffffffffffffffffffffffffffff1673ffffffffffffffffffffffffffffffffffffffff16815260200190815260200160002060009054906101000a900460ff169050919050565b6115bb7fa49807205ce4d355092ef5a8a18f56e8913cf4a201fbe287825b095693c2177533611480565b6115fa576040517f08c379a00000000000000000000000000000000000000000000000000000000081526004016115f19061302c565b60405180910390fd5b80600960006101000a81548160ff02191690831515021790555050565b7f7378a0511133229f838d56e2f9c6feccdff7b4cf063897a326e203a88bfc5cb981565b61164482610c0f565b61164d81611cd3565b6116578383611de0565b50505050565b6116877f7378a0511133229f838d56e2f9c6feccdff7b4cf063897a326e203a88bfc5cb933611480565b6116c6576040517f08c379a00000000000000000000000000000000000000000000000000000000081526004016116bd90612b06565b60405180910390fd5b808210611708576040517f08c379a00000000000000000000000000000000000000000000000000000000081526004016116ff90613098565b60405180910390fd5b60065442108061171a57506000600854145b611759576040517f08c379a00000000000000000000000000000000000000000000000000000000081526004016117509061312a565b60405180910390fd5b81600681905550806007819055507f1f9b8035377af542e7a83c8f304040b48d5c79b3518244ecb254d4b2843377f482824260405161179a9392919061314a565b60405180910390a15050565b60006006544210156117ed576040517f08c379a00000000000000000000000000000000000000000000000000000000081526004016117e4906131cd565b60405180910390fd5b60075442106117ff5760009050611810565b4260075461180d9190612f02565b90505b90565b61183d7fa49807205ce4d355092ef5a8a18f56e8913cf4a201fbe287825b095693c2177533611480565b61187c576040517f08c379a00000000000000000000000000000000000000000000000000000000081526004016118739061302c565b60405180910390fd5b611884611f35565b3373ffffffffffffffffffffffffffffffffffffffff167f48dacb3c64960dc44e2475e50f2f44740db6d78f87b3f18b6f3e644380733ad4426040516118ca9190612396565b60405180910390a2565b6118fe7f7378a0511133229f838d56e2f9c6feccdff7b4cf063897a326e203a88bfc5cb933611480565b61193d576040517f08c379a000000000000000000000000000000000000000000000000000000000815260040161193490612b06565b60405180910390fd5b6007544210611981576040517f08c379a000000000000000000000000000000000000000000000000000000000815260040161197890613239565b60405180910390fd5b603c8161198e9190613259565b6007600082825461199f919061329b565b925050819055507f1f9b8035377af542e7a83c8f304040b48d5c79b3518244ecb254d4b2843377f4600654600754426040516119dd9392919061314a565b60405180910390a150565b60606000600754421015611a31576040517f08c379a0000000000000000000000000000000000000000000000000000000008152600401611a289061331b565b60405180910390fd5b600060038054905011611a79576040517f08c379a0000000000000000000000000000000000000000000000000000000008152600401611a7090613387565b60405180910390fd5b60008060005b600380549050811015611af8578260038281548110611aa157611aa06129ee565b5b9060005260206000209060020201600101541115611ae55760038181548110611acd57611acc6129ee565b5b90600052602060002090600202016001015492508091505b8080611af090612a4c565b915050611a7f565b5060038181548110611b0d57611b0c6129ee565b5b906000526020600020906002020160000160038281548110611b3257611b316129ee565b5b906000526020600020906002020160010154818054611b5090612b55565b80601f0160208091040260200160405190810160405280929190818152602001828054611b7c90612b55565b8015611bc95780601f10611b9e57610100808354040283529160200191611bc9565b820191906000526020600020905b815481529060010190602001808311611bac57829003601f168201915b505050505091509350935050509091565b611be26110e5565b15611c19576040517fd93c066500000000000000000000000000000000000000000000000000000000815260040160405180910390fd5b565b6002805403611c56576040517f3ee5aeb500000000000000000000000000000000000000000000000000000000815260040160405180910390fd5b60028081905550565b6001600281905550565b60007f01ffc9a7000000000000000000000000000000000000000000000000000000007bffffffffffffffffffffffffffffffffffffffffffffffffffffffff1916827bffffffffffffffffffffffffffffffffffffffffffffffffffffffff1916149050919050565b611ce481611cdf611dd8565b611f97565b50565b6000611cf38383611480565b611dcd57600160008085815260200190815260200160002060000160008473ffffffffffffffffffffffffffffffffffffffff1673ffffffffffffffffffffffffffffffffffffffff16815260200190815260200160002060006101000a81548160ff021916908315150217905550611d6a611dd8565b73ffffffffffffffffffffffffffffffffffffffff168273ffffffffffffffffffffffffffffffffffffffff16847f2f8788117e7eff1d82e926ec794901d17c78024a50270940304540a733656f0d60405160405180910390a460019050611dd2565b600090505b92915050565b600033905090565b6000611dec8383611480565b15611ec757600080600085815260200190815260200160002060000160008473ffffffffffffffffffffffffffffffffffffffff1673ffffffffffffffffffffffffffffffffffffffff16815260200190815260200160002060006101000a81548160ff021916908315150217905550611e64611dd8565b73ffffffffffffffffffffffffffffffffffffffff168273ffffffffffffffffffffffffffffffffffffffff16847ff6391f5c32d9c69d2a47ea670b442974b53935d1edc7fd64eb21e047a839171b60405160405180910390a460019050611ecc565b600090505b92915050565b611eda611fe8565b6000600160006101000a81548160ff0219169083151502179055507f5db9ee0a495bf2e6ff9c91a7834c1ba4fdd244a5e8aa4e537bd38aeae4b073aa611f1e611dd8565b604051611f2b91906133b6565b60405180910390a1565b611f3d611bda565b60018060006101000a81548160ff0219169083151502179055507f62e78cea01bee320cd4e420270b5ea74000d11b0c9f74754ebdbfc544b05a258611f80611dd8565b604051611f8d91906133b6565b60405180910390a1565b611fa18282611480565b611fe45780826040517fe2517d3f000000000000000000000000000000000000000000000000000000008152600401611fdb9291906133d1565b60405180910390fd5b5050565b611ff06110e5565b612026576040517f8dfc202b00000000000000000000000000000000000000000000000000000000815260040160405180910390fd5b565b6000604051905090565b600080fd5b600080fd5b6000819050919050565b61204f8161203c565b811461205a57600080fd5b50565b60008135905061206c81612046565b92915050565b60006020828403121561208857612087612032565b5b60006120968482850161205d565b91505092915050565b60007fffffffff0000000000000000000000000000000000000000000000000000000082169050919050565b6120d48161209f565b81146120df57600080fd5b50565b6000813590506120f1816120cb565b92915050565b60006020828403121561210d5761210c612032565b5b600061211b848285016120e2565b91505092915050565b60008115159050919050565b61213981612124565b82525050565b60006020820190506121546000830184612130565b92915050565b600080fd5b6000601f19601f8301169050919050565b7f4e487b7100000000000000000000000000000000000000000000000000000000600052604160045260246000fd5b6121a88261215f565b810181811067ffffffffffffffff821117156121c7576121c6612170565b5b80604052505050565b60006121da612028565b90506121e6828261219f565b919050565b600067ffffffffffffffff82111561220657612205612170565b5b602082029050602081019050919050565b600080fd5b600073ffffffffffffffffffffffffffffffffffffffff82169050919050565b60006122478261221c565b9050919050565b6122578161223c565b811461226257600080fd5b50565b6000813590506122748161224e565b92915050565b600061228d612288846121eb565b6121d0565b905080838252602082019050602084028301858111156122b0576122af612217565b5b835b818110156122d957806122c58882612265565b8452602084019350506020810190506122b2565b5050509392505050565b600082601f8301126122f8576122f761215a565b5b813561230884826020860161227a565b91505092915050565b60006020828403121561232757612326612032565b5b600082013567ffffffffffffffff81111561234557612344612037565b5b612351848285016122e3565b91505092915050565b6000602082840312156123705761236f612032565b5b600061237e84828501612265565b91505092915050565b6123908161203c565b82525050565b60006020820190506123ab6000830184612387565b92915050565b6000819050919050565b6123c4816123b1565b81146123cf57600080fd5b50565b6000813590506123e1816123bb565b92915050565b6000602082840312156123fd576123fc612032565b5b600061240b848285016123d2565b91505092915050565b61241d816123b1565b82525050565b60006020820190506124386000830184612414565b92915050565b6000806040838503121561245557612454612032565b5b6000612463858286016123d2565b925050602061247485828601612265565b9150509250929050565b600081519050919050565b600082825260208201905092915050565b60005b838110156124b857808201518184015260208101905061249d565b60008484015250505050565b60006124cf8261247e565b6124d98185612489565b93506124e981856020860161249a565b6124f28161215f565b840191505092915050565b6000604082019050818103600083015261251781856124c4565b90506125266020830184612387565b9392505050565b600080fd5b600067ffffffffffffffff82111561254d5761254c612170565b5b6125568261215f565b9050602081019050919050565b82818337600083830152505050565b600061258561258084612532565b6121d0565b9050828152602081018484840111156125a1576125a061252d565b5b6125ac848285612563565b509392505050565b600082601f8301126125c9576125c861215a565b5b81356125d9848260208601612572565b91505092915050565b6000602082840312156125f8576125f7612032565b5b600082013567ffffffffffffffff81111561261657612615612037565b5b612622848285016125b4565b91505092915050565b600081519050919050565b600082825260208201905092915050565b6000819050602082019050919050565b600082825260208201905092915050565b60006126738261247e565b61267d8185612657565b935061268d81856020860161249a565b6126968161215f565b840191505092915050565b6126aa8161203c565b82525050565b600060408301600083015184820360008601526126cd8282612668565b91505060208301516126e260208601826126a1565b508091505092915050565b60006126f983836126b0565b905092915050565b6000602082019050919050565b60006127198261262b565b6127238185612636565b93508360208202850161273585612647565b8060005b85811015612771578484038952815161275285826126ed565b945061275d83612701565b925060208a01995050600181019050612739565b50829750879550505050505092915050565b6000602082019050818103600083015261279d818461270e565b905092915050565b6127ae81612124565b81146127b957600080fd5b50565b6000813590506127cb816127a5565b92915050565b6000602082840312156127e7576127e6612032565b5b60006127f5848285016127bc565b91505092915050565b6000806040838503121561281557612814612032565b5b60006128238582860161205d565b92505060206128348582860161205d565b9150509250929050565b7f596f75206861766520616c726561647920766f74656400000000000000000000600082015250565b6000612874601683612489565b915061287f8261283e565b602082019050919050565b600060208201905081810360008301526128a381612867565b9050919050565b7f496e76616c69642063616e64696461746520696e646578000000000000000000600082015250565b60006128e0601783612489565b91506128eb826128aa565b602082019050919050565b6000602082019050818103600083015261290f816128d3565b9050919050565b7f566f74696e67206973206e6f7420616374697665000000000000000000000000600082015250565b600061294c601483612489565b915061295782612916565b602082019050919050565b6000602082019050818103600083015261297b8161293f565b9050919050565b7f596f7520617265206e6f74207265676973746572656420746f20766f74650000600082015250565b60006129b8601e83612489565b91506129c382612982565b602082019050919050565b600060208201905081810360008301526129e7816129ab565b9050919050565b7f4e487b7100000000000000000000000000000000000000000000000000000000600052603260045260246000fd5b7f4e487b7100000000000000000000000000000000000000000000000000000000600052601160045260246000fd5b6000612a578261203c565b91507fffffffffffffffffffffffffffffffffffffffffffffffffffffffffffffffff8203612a8957612a88612a1d565b5b600182019050919050565b7f43616c6c6572206973206e6f7420616e20656c656374696f6e206d616e61676560008201527f7200000000000000000000000000000000000000000000000000000000000000602082015250565b6000612af0602183612489565b9150612afb82612a94565b604082019050919050565b60006020820190508181036000830152612b1f81612ae3565b9050919050565b7f4e487b7100000000000000000000000000000000000000000000000000000000600052602260045260246000fd5b60006002820490506001821680612b6d57607f821691505b602082108103612b8057612b7f612b26565b5b50919050565b7f566f74657220616c726561647920726567697374657265640000000000000000600082015250565b6000612bbc601883612489565b9150612bc782612b86565b602082019050919050565b60006020820190508181036000830152612beb81612baf565b9050919050565b7f43616e6e6f74206164642063616e6469646174657320647572696e672061637460008201527f69766520766f74696e6700000000000000000000000000000000000000000000602082015250565b6000612c4e602a83612489565b9150612c5982612bf2565b604082019050919050565b60006020820190508181036000830152612c7d81612c41565b9050919050565b60008190508160005260206000209050919050565b60006020601f8301049050919050565b600082821b905092915050565b600060088302612ce67fffffffffffffffffffffffffffffffffffffffffffffffffffffffffffffffff82612ca9565b612cf08683612ca9565b95508019841693508086168417925050509392505050565b6000819050919050565b6000612d2d612d28612d238461203c565b612d08565b61203c565b9050919050565b6000819050919050565b612d4783612d12565b612d5b612d5382612d34565b848454612cb6565b825550505050565b600090565b612d70612d63565b612d7b818484612d3e565b505050565b5b81811015612d9f57612d94600082612d68565b600181019050612d81565b5050565b601f821115612de457612db581612c84565b612dbe84612c99565b81016020851015612dcd578190505b612de1612dd985612c99565b830182612d80565b50505b505050565b600082821c905092915050565b6000612e0760001984600802612de9565b1980831691505092915050565b6000612e208383612df6565b9150826002028217905092915050565b612e398261247e565b67ffffffffffffffff811115612e5257612e51612170565b5b612e5c8254612b55565b612e67828285612da3565b600060209050601f831160018114612e9a5760008415612e88578287015190505b612e928582612e14565b865550612efa565b601f198416612ea886612c84565b60005b82811015612ed057848901518255600182019150602085019450602081019050612eab565b86831015612eed5784890151612ee9601f891682612df6565b8355505b6001600288020188555050505b505050505050565b6000612f0d8261203c565b9150612f188361203c565b9250828203905081811115612f3057612f2f612a1d565b5b92915050565b60006060820190508181036000830152612f5081866124c4565b9050612f5f6020830185612387565b612f6c6040830184612387565b949350505050565b7f566f746572206e6f742072656769737465726564000000000000000000000000600082015250565b6000612faa601483612489565b9150612fb582612f74565b602082019050919050565b60006020820190508181036000830152612fd981612f9d565b9050919050565b7f43616c6c6572206973206e6f7420616e2061646d696e00000000000000000000600082015250565b6000613016601683612489565b915061302182612fe0565b602082019050919050565b6000602082019050818103600083015261304581613009565b9050919050565b7f496e76616c69642074696d6520706572696f6400000000000000000000000000600082015250565b6000613082601383612489565b915061308d8261304c565b602082019050919050565b600060208201905081810360008301526130b181613075565b9050919050565b7f43616e6e6f74206d6f6469667920616674657220766f74696e6720737461727460008201527f7300000000000000000000000000000000000000000000000000000000000000602082015250565b6000613114602183612489565b915061311f826130b8565b604082019050919050565b6000602082019050818103600083015261314381613107565b9050919050565b600060608201905061315f6000830186612387565b61316c6020830185612387565b6131796040830184612387565b949350505050565b7f566f74696e6720686173206e6f74207374617274656420796574000000000000600082015250565b60006131b7601a83612489565b91506131c282613181565b602082019050919050565b600060208201905081810360008301526131e6816131aa565b9050919050565b7f566f74696e672068617320616c726561647920656e6465640000000000000000600082015250565b6000613223601883612489565b915061322e826131ed565b602082019050919050565b6000602082019050818103600083015261325281613216565b9050919050565b60006132648261203c565b915061326f8361203c565b925082820261327d8161203c565b9150828204841483151761329457613293612a1d565b5b5092915050565b60006132a68261203c565b91506132b18361203c565b92508282019050808211156132c9576132c8612a1d565b5b92915050565b7f566f74696e67206973207374696c6c2061637469766500000000000000000000600082015250565b6000613305601683612489565b9150613310826132cf565b602082019050919050565b60006020820190508181036000830152613334816132f8565b9050919050565b7f4e6f2063616e6469646174657320617661696c61626c65000000000000000000600082015250565b6000613371601783612489565b915061337c8261333b565b602082019050919050565b600060208201905081810360008301526133a081613364565b9050919050565b6133b08161223c565b82525050565b60006020820190506133cb60008301846133a7565b92915050565b60006040820190506133e660008301856133a7565b6133f36020830184612414565b939250505056fea2646970667358221220d74489b60270fa23c1347257645753fddc0167b0bc27bbadfcc87cc9b65f608364736f6c63430008140033",
  "linkReferences": {},
  "deployedLinkReferences": {}
}